:100000000C945D000C9485000C9485000C94850084
:100010000C9485000C9485000C9485000C9485004C
:100020000C9485000C9485000C9485000C9485003C
:100030000C9485000C9485000C9485000C9485002C
:100040000C94F3020C9485000C94C1020C949B0256
:100050000C9485000C9485000C9485000C9485000C
:100060000C9485000C94850000000008000201003B
:100070000003040700000000000000000000000072
:10008000250028002B0000000000240027002A0083
:10009000040404040404040402020202020203032E
:1000A0000303030301020408102040800102040836
:1000B00010200102040810208A0511241FBECFEF72
:1000C000D8E0DEBFCDBF12E0A0E0B1E0E8E8FBE0A1
:1000D00002C005900D92A832B107D9F723E0A8E23B
:1000E000B2E001C01D92AE32B207E1F710E0CDE5FB
:1000F000D0E004C02197FE010E94B705CC35D1079E
:10010000C9F70E943D030C94C2050C94000090E0D6
:10011000FC01EC55FF4F2491FC01E057FF4F849107
:10012000882399F090E0880F991FFC01EA57FF4F50
:10013000A591B491FC01E458FF4F859194918FB73C
:10014000F894EC91E22BEC938FBF0895CF92DF925D
:10015000EF92FF920F931F93CF93DF936C017A017D
:100160008B01C0E0D0E0CE15DF0589F0D8016D919C
:100170008D01D601ED91FC910190F081E02DC60139
:100180000995892B11F47E0102C02196ECCFC7019D
:10019000DF91CF911F910F91FF90EF90DF90CF9063
:1001A0000895089580E090E00895FC01538D448DFA
:1001B000252F30E0842F90E0821B930B541710F012
:1001C000CF96089501970895FC01918D828D98171F
:1001D00061F0828DDF01A80FB11D5D968C91928D2B
:1001E0009F5F9F73928F90E008958FEF9FEF089528
:1001F000FC01918D828D981731F0828DE80FF11DF1
:10020000858D90E008958FEF9FEF0895FC01918D0B
:10021000228D892F90E0805C9F4F821B91098F7304
:100220009927089581E992E00E94060121E0892B37
:1002300009F420E0822F0895FC01848DDF01A80FCE
:10024000B11DA35ABF4F2C91848D90E001968F73FE
:100250009927848FA689B7892C93A089B1898C911D
:1002600080648C93938D848D981306C00288F389E3
:10027000E02D80818F7D80830895EF92FF920F9310
:100280001F93CF93DF93EC0181E0888F9B8D8C8D42
:10029000981305C0E889F989808185FD24C0F62E70
:1002A0000B8D10E00F5F1F4F0F731127E02E8C8D09
:1002B000E8120CC00FB607FCFACFE889F9898081F3
:1002C00085FFF5CFCE010E941C01F1CF8B8DFE0181
:1002D000E80FF11DE35AFF4FF0820B8FEA89FB898B
:1002E0008081806207C0EE89FF896083E889F9898F
:1002F00080818064808381E090E0DF91CF911F91C5
:100300000F91FF90EF900895CF93DF93EC01888DCC
:100310008823C9F0EA89FB89808185FD05C0A88909
:10032000B9898C9186FD0FC00FB607FCF5CF80818F
:1003300085FFF2CFA889B9898C9185FFEDCFCE01D9
:100340000E941C01E7CFDF91CF91089580E090E0FB
:10035000892B29F00E94120181110C94000008954C
:1003600090E0FC01E859FF4F3491FC01EC55FF4F40
:100370002491FC01E057FF4FE491EE2309F43BC0C8
:10038000332339F1333091F038F43130A9F0323081
:1003900001F584B58F7D12C0373091F03830A1F06F
:1003A0003430B9F4809180008F7D03C0809180004B
:1003B0008F77809380000DC084B58F7784BD09C08E
:1003C0008091B0008F7703C08091B0008F7D8093C3
:1003D000B000F0E0EE0FFF1FE458FF4FA591B4917D
:1003E0008FB7F894EC91611103C020952E2301C0C2
:1003F0002E2B2C938FBF08953FB7F89480912D0238
:1004000090912E02A0912F02B091300226B5A89BA8
:1004100005C02F3F19F00196A11DB11D3FBFBA2F96
:10042000A92F982F8827820F911DA11DB11DBC01F6
:10043000CD0142E0660F771F881F991F4A95D1F7BB
:1004400008958F929F92AF92BF92CF92DF92EF92D8
:10045000FF926B017C010E94FC014B015C01C11405
:10046000D104E104F104F1F00E94FC01DC01CB01B4
:1004700088199909AA09BB09883E9340A105B105CD
:1004800070F321E0C21AD108E108F10888EE880E65
:1004900083E0981EA11CB11CC114D104E104F10435
:1004A00019F7DDCFFF90EF90DF90CF90BF90AF9026
:1004B0009F908F900895009769F0FC0101900020B3
:1004C000E9F73197AF01481B590BBC0181E992E074
:1004D0000C94A60080E090E0089580916202811162
:1004E00007C082E092E00E945B0281E0809362029A
:1004F000109271011092700180E090E008958CE0FC
:10050000E3E6F2E0DF011D928A95E9F780E3E1E39B
:10051000F2E0DF011D928A95E9F710926F021092C6
:100520006102109262028CE092E00E945B020C94E5
:100530006D020E94BD051F920F920FB60F921124FB
:100540002F933F934F935F936F937F938F939F93DB
:10055000AF93BF93EF93FF9381E992E00E941C0158
:10056000FF91EF91BF91AF919F918F917F916F918B
:100570005F914F913F912F910F900FBE0F901F9061
:1005800018951F920F920FB60F9211242F938F93ED
:100590009F93EF93FF93E091A102F091A2028081DB
:1005A000E091A702F091A80282FD12C09081809193
:1005B000AA028F5F8F732091AB02821751F0E091F6
:1005C000AA02F0E0EF56FD4F958F8093AA0201C07A
:1005D0008081FF91EF919F918F912F910F900FBE8E
:1005E0000F901F9018951F920F920FB60F92112423
:1005F0002F933F938F939F93AF93BF938091290243
:1006000090912A02A0912B02B0912C0230912802E5
:1006100023E0230F2D3720F40196A11DB11D05C045
:1006200026E8230F0296A11DB11D20932802809376
:10063000290290932A02A0932B02B0932C0280915E
:100640002D0290912E02A0912F02B09130020196BE
:10065000A11DB11D80932D0290932E02A0932F0215
:10066000B0933002BF91AF919F918F913F912F91A5
:100670000F900FBE0F901F901895CF93DF93CDB7BB
:10068000DEB72D970FB6F894DEBF0FBECDBF7894BE
:1006900084B5826084BD84B5816084BD85B5826087
:1006A00085BD85B5816085BD80916E008160809338
:1006B0006E001092810080918100826080938100A1
:1006C00080918100816080938100809180008160B1
:1006D000809380008091B10084608093B10080910C
:1006E000B00081608093B00080917A008460809334
:1006F0007A0080917A00826080937A0080917A00FB
:10070000816080937A0080917A00806880937A007B
:100710001092C10082E00E94870083E00E9487005F
:1007200084E00E94870085E00E94870086E00E94A6
:10073000870087E00E94870088E00E94870089E0A8
:100740000E9487008AE00E9487008BE00E94870059
:100750008CE00E9487008DE00E94870061E083E0CA
:100760000E94B00161E084E00E94B00161E085E098
:100770000E94B00161E086E00E94B00161E087E084
:100780000E94B00161E088E00E94B00161E089E070
:100790000E94B00161E08AE00E94B00161E08BE05C
:1007A0000E94B00161E08CE00E94B00161E08DE048
:1007B0000E94B00160E08DE00E94B0016AEF70E03D
:1007C00080E090E00E94210261E08DE00E94B00193
:1007D0006AEF70E080E090E00E94210260E08DE02E
:1007E0000E94B0016AEF70E080E090E00E94210278
:1007F00061E08DE00E94B0016AEF70E080E090E07F
:100800000E94210261E083E00E94B00160E08DE07F
:100810000E94B0018CE0E7E7F2E0DF011D928A95CB
:10082000E9F7E091A102F091A20282E08083E091D9
:100830009D02F0919E021082E0919F02F091A00231
:100840008FEC80831092A902E091A502F091A6029C
:1008500086E08083E091A302F091A4028081806110
:100860008083E091A302F091A4028081886080835C
:10087000E091A302F091A402808180688083E091DE
:10088000A302F091A40280818F7D808386E092E0B4
:100890000E945B0261E08DE00E94B0010E947F0235
:1008A000E3E6CE2EE2E0DE2E8E010F5F1F4FFCE06E
:1008B0005F2E500EA7E7AA2EA2E0BA2E1092900249
:1008C0005CE0452E63E0862E912C66246394712CA7
:1008D00081E992E00E940601181619060CF0C9C0C1
:1008E00081E992E00E94E400282F80939002E09139
:1008F0008F0281E08E0F80938F02F0E0EE58FE4F62
:100900002083843010F010928F022D870E946D0298
:100910007C012D85892B29F0709271016092700104
:1009200096C0E0916F02ED3028F0909271018092B4
:10093000700187C02D3029F080EE820F8F3508F0CE
:1009400068C0E0919102F09192020190F081E02D57
:10095000622F81E992E02D870995E0916F022D8544
:100960002A3019F02D3009F04BC083E692E020E0E8
:1009700030E0482F4C194E17C8F4DC014D91CD01E1
:10098000403249F42F5F243098F32093610243E012
:10099000E42EF12C2EC0FCE02F9FD0011124AF5C7F
:1009A000BD4FA30FB11D4C933F5FE3CF2093610276
:1009B000312C809161028315E0F0D801E42D1D9265
:1009C000EA95E9F75CE0359EF0011124EF5CFD4FFC
:1009D000D8018191882321F05A16C9F28D93F9CF5D
:1009E0008CE092E00E945B02C8010E945B0233949B
:1009F000E0CF0E947F0283E0E816F10441F521C0B8
:100A000081E08E0F80936F02F0E0ED59FD4F20835F
:100A10001EC02F37E1F4EE23D1F0E150E0936F02D6
:100A2000F0E0ED59FD4F1082109262028CE092E0EE
:100A30000E945B020E946D0283E692E00E945B02CC
:100A400006C08FE092E00E945B020E947F02D50107
:100A5000E42D1D92EA95E9F781E992E00E940601F2
:100A6000181619060CF034CF81E992E00E94E400D8
:100A7000F3CF26EF822E21E0922E32E7E32E31E0F3
:100A8000F32E412C8AEF682E81E0782E212C312C18
:100A9000D701EC91E053E73340F4F0E0EE0FFF1F95
:100AA000E857FE4F8081918102C080E792E0FC010F
:100AB000E20DF31D6081F30181913F010E94B001BD
:100AC000FFEF2F1A3F0A57E02516310409F761E0BE
:100AD00080918F02841160E082E00E94B001D40115
:100AE0007D904D0160E0872D0E94B00165E070E0CF
:100AF00080E090E00E94210261E0872D0E94B00119
:100B00004394BFEFEB1AFB0AE4E04E12BBCF0E9406
:100B1000A601D4CEE1E9F2E01382128288EE93E0DE
:100B2000A0E0B0E084839583A683B7838AE791E051
:100B30009183808385EC90E09587848784EC90E0B6
:100B40009787868780EC90E0918B808B81EC90E09A
:100B5000938B828B82EC90E0958B848B86EC90E07B
:100B6000978B868B118E128E138E148E0895EE0F36
:100B7000FF1F0590F491E02D099481E090E0F89436
:080B80000C94C205F894FFCFAC
:100B88000100000001010101000001010101000153
:100B98000101010001010000010101000000010143
:100BA800010101010101000101010101010100012F
:100BB8000101010101010101010101000000000121
:100BC8000001010101010100010100010100010111
:100BD8000000010101010101000001010100010102
:100BE80000010001010000000001010101010100F4
:100BF800FFFF46464646000000003D01A600D5001E
:100C080084010601E400F800690162015B015401F6
:100C18004D0146013F01380131012A01700270027D
:100C28007002700270027002700223011C0115012B
:100C38000E0107010001700270027002700270025A
:100C4800700270027002700270027002700270020C
:100C580070027002700270027002700270027002FC
:100C68007002700270027002700223011C011501EB
:100C78000E01070100010A0B0C0D03040506070805
:100C880009002D3E200048656C6C6F210A0D000A92
:100C98000D2D2D434F4D4D414E4420544F4F204C68
:080CA800415247452D2D0000CB
:107800000C94343C0C94513C0C94513C0C94513CE1
:107810000C94513C0C94513C0C94513C0C94513CB4
:107820000C94513C0C94513C0C94513C0C94513CA4
:107830000C94513C0C94513C0C94513C0C94513C94
:107840000C94513C0C94513C0C94513C0C94513C84
:107850000C94513C0C94513C0C94513C0C94513C74
:107860000C94513C0C94513C11241FBECFEFD8E036
:10787000DEBFCDBF11E0A0E0B1E0ECE9FFE702C060
:1078800005900D92A230B107D9F712E0A2E0B1E065
:1078900001C01D92AD30B107E1F70E942D3D0C945F
:1078A000CC3F0C94003C982F959595959595959582
:1078B000905D8F708A307CF0282F295A8091C0000B
:1078C00085FFFCCF9093C6008091C00085FFFCCF60
:1078D0002093C6000895282F205DF0CF982F809127
:1078E000C00085FFFCCF9093C6000895EF92FF92F1
:1078F0000F931F93EE24FF2487018091C00087FD22
:1079000017C00894E11CF11C011D111D81E4E8164B
:1079100082E4F8068FE0080780E0180770F3E09132
:107920000401F091050109958091C00087FFE9CF1E
:107930008091C6001F910F91FF90EF9008950E94D3
:10794000763C982F8091C00085FFFCCF9093C600B5
:1079500091362CF490330CF09053892F089597555D
:10796000892F08951F930E949F3C182F0E949F3CCF
:107970001295107F810F1F9108951F93182F882350
:1079800021F00E94763C1150E1F71F9108951F935A
:10799000182F0E94763C803249F0809103018F5F5E
:1079A000809303018530C1F01F9108958091C0003C
:1079B00085FFFCCF84E18093C6008091C00085FFE5
:1079C000FCCF1093C6008091C00085FFFCCF80E102
:1079D0008093C6001F910895E0910401F091050184
:1079E00009951F9108950E94763C803241F0809164
:1079F00003018F5F80930301853081F008958091AA
:107A0000C00085FFFCCF84E18093C6008091C00058
:107A100085FFFCCF80E18093C6000895E0910401CA
:107A2000F09105010995089540E951E08823A1F0FE
:107A30002D9A28EE33E0FA013197F1F721503040CA
:107A4000D1F72D9828EE33E0FA013197F1F7215064
:107A50003040D1F7815061F708953F924F925F9285
:107A60006F927F928F929F92AF92BF92CF92DF924E
:107A7000EF92FF920F931F93CF93DF93000080E16B
:107A80008093C4001092C50088E18093C10086E015
:107A90008093C2005098589A259A81E00E94143D24
:107AA00024E1F22E9EE1E92E85E9D82E0FE0C02ECA
:107AB00010E1B12EAA24A394B1E49B2EA6E58A2E50
:107AC000F2E57F2EE0E26E2E79E4572E63E5462E36
:107AD00050E5352E0E94763C8033B1F18133B9F107
:107AE000803409F46FC0813409F476C0823409F41B
:107AF00085C0853409F488C0803531F1823521F1A3
:107B0000813511F1853509F485C0863509F48DC0BC
:107B1000843609F496C0843709F403C1853709F423
:107B200072C1863709F466C0809103018F5F80932C
:107B30000301853079F6E0910401F0910501099582
:107B40000E94763C803351F60E94F33CC3CF0E94E2
:107B5000763C803249F78091C00085FFFCCFF092DF
:107B6000C6008091C00085FFFCCF9092C600809136
:107B7000C00085FFFCCF8092C6008091C00085FFC9
:107B8000FCCF7092C6008091C00085FFFCCF609250
:107B9000C6008091C00085FFFCCF5092C600809146
:107BA000C00085FFFCCF4092C6008091C00085FFD9
:107BB000FCCF3092C6008091C00085FFFCCFB09210
:107BC000C60088CF0E94763C863808F4BDCF0E945C
:107BD000763C0E94F33C7ECF0E94763C803809F4CC
:107BE0009CC0813809F40BC1823809F43CC1883942
:107BF00009F48FC080E00E94C73C6CCF84E10E94F2
:107C0000BD3C0E94F33C66CF85E00E94BD3C0E94D3
:107C1000F33C60CF0E94763C809306010E94763C44
:107C2000809307010E94F33C55CF0E94763C80333D
:107C300009F41DC183E00E94BD3C80E00E94C73C66
:107C400049CF0E94763C809309020E94763C809343
:107C5000080280910C028E7F80930C020E94763C79
:107C6000853409F415C18091080290910902892B8D
:107C700089F000E010E00E94763CF801E85FFE4FDA
:107C800080830F5F1F4F80910802909109020817AF
:107C9000190788F30E94763C803209F045CF809125
:107CA0000C0280FF01C16091060170910701660F0F
:107CB000771F7093070160930601A0910802B091AD
:107CC00009021097C9F0E8E0F1E09B01AD014E0F09
:107CD0005F1FF999FECF32BD21BD819180BDFA9A17
:107CE000F99A2F5F3F4FE417F50799F76A0F7B1F4B
:107CF00070930701609306018091C00085FFFCCF5F
:107D0000F092C6008091C00085FFFCCFB092C60003
:107D1000E1CE83E00E94C73CDDCE82E00E94C73CFA
:107D2000D9CE0E94763C809309020E94763C8093D3
:107D300008028091060190910701880F991F909386
:107D40000701809306010E94763C853409F4A6C0A1
:107D500080910C028E7F80930C020E94763C8032D0
:107D600009F0B8CE8091C00085FFFCCFF092C6002C
:107D7000609108027091090261157105B9F140E046
:107D800050E080910C02A82FA170B82FB27011C0E2
:107D9000BB2309F45CC0E0910601F0910701319624
:107DA000F0930701E09306014F5F5F4F46175707B7
:107DB000E8F4AA2369F3F999FECF209106013091E6
:107DC000070132BD21BDF89A90B58091C00085FFB2
:107DD000FCCF9093C6002F5F3F4F30930701209355
:107DE00006014F5F5F4F4617570718F38091C00099
:107DF00085FDE5CE8091C00085FFF8CFE0CE81E023
:107E00000E94C73C67CE0E94763C803209F08CCE3F
:107E10008091C00085FFFCCFF092C6008091C00029
:107E200085FFFCCFE092C6008091C00085FFFCCFAB
:107E3000D092C6008091C00085FFFCCFC092C600E2
:107E40008091C00085FFFCCFB092C60043CEE09188
:107E50000601F091070194918091C00085FFFCCF4D
:107E60009093C6009CCF80E10E94C73C33CE0E9415
:107E7000763C0E94763C182F0E94763C112309F430
:107E800083C0113009F484C08FE00E94C73C22CE29
:107E900080910C02816080930C02E5CE80910C02EF
:107EA000816080930C0259CF809107018823880F4D
:107EB000880B8A2180930B02809106019091070123
:107EC000880F991F90930701809306018091080203
:107ED00080FF09C080910802909109020196909359
:107EE000090280930802F894F999FECF1127E091D6
:107EF0000601F0910701C8E0D1E08091080290915D
:107F00000902103091F40091570001700130D9F34B
:107F100003E000935700E89500915700017001308D
:107F2000D9F301E100935700E89509901990009169
:107F3000570001700130D9F301E000935700E89534
:107F40001395103498F011270091570001700130FB
:107F5000D9F305E000935700E895009157000170B0
:107F60000130D9F301E100935700E895329602976A
:107F700009F0C7CF103011F00296E5CF112480919F
:107F8000C00085FFB9CEBCCE8EE10E94C73CA2CD19
:0C7F900085E90E94C73C9ECDF894FFCF0D
:027F9C00800063
:040000030000780081
:00000001FF
